:20000000281700204D010000000000005701000000000000000000000000000000000000DB
:200020000000000000000000000000009D1E000000000000000000000B01000000000000F9
:200040005F0100005F010000751F000061280000811F000025270000F728000000000000B8
:20006000000000000000000000000000000000000000000000000000000000000000000080
:20008000000000000000000000000000000000000000000000000000000000000000000060
:2000A000000000000000000000000000000000000000000000000000000000000000000040
:2000C0000348854600F08AF8004800479526000028170020084B19680868203080F3098857
:2000E000022080F31488BFF36F8F3FBCAE4608BC04BC62B61847000014120020EFF310807D
:2001000072B6704780F310887047EFF309800E4B1A6820381060F0C044464D4656465F4622
:20012000F0C008B572B603F073FB62B60CBC116808681030F0C8A046A946B246BB4680F3C7
:2001400009882038F0C81847141200200448804704480047FEE7FEE7FEE7FEE7FEE7FEE755
:20016000A11E0000C100000030B50B46014600202022012409E00D46D5409D4205D31D4690
:200180009540491B2546954040191546521E002DF1DC30BD03460B439B0703D009E008C915
:2001A000121F08C0042AFAD203E00B780370401C491C521EF9D27047D2B201E00270401C8D
:2001C000491EFBD270470022F6E710B513460A4604461946FFF7F0FF204610BD064C01258E
:2001E000064E05E0E36807CC2B430C3C98471034B442F7D3FFF768FFB03F0000D03F0000B4
:20020000704710B5802001F0BFF80120400201F0BBF80120800201F0B7F8FF20013001F08F
:20022000B3F8402001F0B0F810BD10B5802001F0ABF8402001F0C8F8FF20013001F0C4F846
:200240000120400201F0C0F80120800201F0BCF8802001F0B9F8022001F0AAF8202001F022
:20026000A7F810BD10B526480078012806D0022820D0032801D100F045F810BD012001F045
:200280000FF8072001F03FF8002001F03CF8082001F039F8002001F036F8062001F000F82B
:2002A000072001F030F8072001F02DF8072001F02AF810BD002000F0F3FFCF2001F023F8BD
:2002C000502000F0EDFF372001F01DF8302000F0E7FF392001F017F8612000F0E1FFC820BD
:2002E00001F011F8002001F00EF8C82001F00BF8822000F0D5FF0E2001F005F810BD0000C2
:200300000112002070B5202000F0CAFF00242E4D285D00F0F8FF641C0F2CF9D3212000F0C9
:20032000BFFF0024284D0F35285D00F0ECFF641C0F2CF9D3222000F0B3FF0024224D1E3571
:20034000285D00F0E0FF641C0F2CF9D3232000F0A7FF00241C4D2D35285D00F0D4FF641C32
:200360000F2CF9D3242000F09BFF0024164D3C35285D00F0C8FF641C0F2CF9D3252000F0B8
:200380008FFF0024104D4B35285D00F0BCFF641C0F2CF9D3262000F083FF00240A4D5A3555
:2003A000285D00F0B0FF641C0F2CF9D3272000F077FF0024044D6935285D00F0A4FF641C3A
:2003C0000F2CF9D370BD00000040000010B51948007801281DD002281AD1002000F060FF71
:2003E0000F2000F090FF0D2000F08DFF612000F057FF982000F087FF002000F084FF982066
:2004000000F081FF502000F04BFF772000F07BFF10BD062000F044FF172000F074FF1720CA
:2004200000F071FF172000F06EFF042000F038FF10BD00000112002010B5294800780128A6
:200440004CD100F02DFFC72000F05DFF002000F05AFF012000F057FF112000F021FF0120FE
:2004600000F051FF442000F01BFF002000F04BFF182000F048FF452000F012FFC72000F0C8
:2004800042FF002000F03FFF002000F03CFF002000F039FF3C2000F003FF012000F033FFA9
:2004A000182000F0FDFE802000F02DFF222000F0F7FEB12000F027FF202000F0F1FE4E20C2
:2004C00000F0EEFE002000F01EFF4F2000F0E8FEC72000F018FF002000F015FF10BD0000EF
:2004E0000112002010B51748007801281AD0022817D1002000F0D4FE8F2000F004FF502014
:2005000000F0CEFEF02000F0FEFE612000F0C8FE682000F0F8FE002000F0F5FED42000F097
:20052000F2FE10BD062000F0BBFE172000F0EBFE172000F0E8FE172000F0E5FE042000F0F4
:20054000AFFE10BD0112002010B527480078012806D0022826D0032801D100F047F810BD2A
:20056000012000F09DFE032000F0CDFE002000F0CAFE2B2000F0C7FE2B2000F0C4FE0320F9
:2005800000F0C1FE062000F08BFE172000F0BBFE172000F0B8FE172000F0B5FE042000F062
:2005A0007FFE10BD002000F07BFEBF2000F0ABFE0E2000F0A8FE302000F072FE3A2000F032
:2005C000A2FE612000F06CFE682000F09CFE002000F099FED42000F096FE822000F060FE7F
:2005E000282000F090FE10BD0112002070B5502000F056FEB72000F086FE202000F050FE93
:2006000000241C4D285D00F07EFE641C2C2CF9D3212000F045FE0024164D2C35285D00F0E7
:2006200072FE641C2A2CF9D3222000F039FE0024104D5635285D00F066FE641C2A2CF9D3B8
:20064000232000F02DFE00240A4D8035285D00F05AFE641C2A2CF9D3242000F021FE002426
:20066000044DAA35285D00F04EFE641C2A2CF9D370BD0000C440000070B500243D48007870
:20068000012875D100F00CFEF92000F03CFE002000F039FE002000F036FE112000F000FE04
:2006A000032000F030FE442000F0FAFD002000F02AFE0F2000F027FE452000F0F1FD0020CF
:2006C00000F021FE002000F01EFE002000F01BFEF92000F018FE4E2000F0E2FD002000F04A
:2006E00012FE4F2000F0DCFD002000F00CFE002000F009FE3C2000F0D3FD052000F003FE4F
:20070000212000F0CDFD002000F0FDFD802000F0FAFD182000F0C4FD802000F0F4FD322091
:2007200000F0BEFD144D285D00F0EDFD641CE4B2992CF8D33F2000F0B3FD222000F0E3FD97
:20074000032000F0ADFD172000F0DDFD042000F0A7FD412000F0D7FD002000F0D4FD3220CB
:2007600000F0D1FD2C2000F09BFD362000F0CBFD70BD0000011200203244000010B54248B4
:200780000078012806D002286BD0032801D100F047FA10BD012000F083FD032000F0B3FD2E
:2007A000002000F0B0FD2B2000F0ADFD2B2000F0AAFD092000F0A7FD062000F071FD07204D
:2007C00000F0A1FD072000F09EFD172000F09BFDF82000F065FD602000F095FDA52000F0F9
:2007E00092FDF82000F05CFD892000F08CFDA52000F089FDF82000F053FD902000F083FD34
:20080000002000F080FDF82000F04AFD932000F07AFD2A2000F077FDF82000F041FDA0202E
:2008200000F071FDA52000F06EFDF82000F038FDA12000F068FD002000F065FDF82000F06D
:200840002FFD732000F05FFD412000F05CFD162000F026FD002000F056FD042000F020FD06
:2008600010BD002000F01CFDAF2000F04CFD302000F016FD3A2000F046FD822000F010FDFB
:20088000122000F040FD10BD0112002010B51A480078012820D002281DD1002000F000FD1C
:2008A0008F2000F030FD502000F0FAFC772000F02AFD612000F0F4FC802000F024FD012035
:2008C00000F021FD282000F01EFD822000F0E8FC0A2000F018FD10BD062000F0E1FC17201B
:2008E00000F011FD172000F00EFD172000F00BFD042000F0D5FC10BD0112002010B5274880
:200900000078012806D0022826D0032801D100F021F910BD012000F0C3FC032000F0F3FC9A
:20092000002000F0F0FC2B2000F0EDFC2B2000F0EAFC032000F0E7FC062000F0B1FC172086
:2009400000F0E1FC172000F0DEFC172000F0DBFC042000F0A5FC10BD002000F0A1FCBF20BD
:2009600000F0D1FC0E2000F0CEFC302000F098FC3A2000F0C8FC612000F092FC802000F061
:20098000C2FC012000F0BFFC282000F0BCFC822000F086FC282000F0B6FC10BD01120020DF
:2009A00010B52E480078012822D0022824D003281DD1212000F074FC002000F0A4FC802041
:2009C00000F0A1FC182000F06BFC802000F09BFC4E2000F065FC002000F095FC4F2000F015
:2009E0005FFC002000F08FFC002000F08CFC10BD122000F055FC10BD012000F051FC2720B7
:200A000000F081FC012000F07EFC002000F07BFC112000F045FC032000F075FC442000F01D
:200A20003FFC002000F06FFC0F2000F06CFC452000F036FC002000F066FC002000F063FC11
:200A4000272000F060FC012000F05DFC3C2000F027FC052000F057FC10BD000001120020C2
:200A600070B530480078012809D0022806D1FF23002129338022084600F0B2F870BD0620E2
:200A800000F00EFC172000F03EFC172000F03BFC172000F038FC042000F002FC012000F01F
:200AA000FFFB272000F02FFC012000F02CFC002000F029FC0C2000F0F3FBD72000F023FC5C
:200AC000D62000F020FC9D2000F01DFC2C2000F0E7FBA82000F017FC3A2000F0E1FB1A2005
:200AE00000F011FC3B2000F0DBFB082000F00BFC3C2000F0D5FB032000F005FC112000F068
:200B0000CFFB032000F0FFFB322000F0C9FB0024054D285D00F0F7FB641CE4B21E2CF8D3F0
:200B200070BD0000011200204043000070B505460C464E2000F0B4FB6805000E00F0E3FBBA
:200B40004F2000F0ADFBE0B200F0DDFB200A00F0DAFB70BD70B5502000F0A2FBB72000F02F
:200B6000D2FB202000F09CFB00241C4D285D00F0CAFB641C2C2CF9D3212000F091FB002495
:200B8000164D2C35285D00F0BEFB641C2A2CF9D3222000F085FB0024104D5635285D00F08E
:200BA000B2FB641C2A2CF9D3232000F079FB00240A4D8035285D00F0A6FB641C2A2CF9D357
:200BC000242000F06DFB0024044DAA35285D00F09AFB641C2A2CF9D370BD00009841000073
:200BE000F8B507460C4616461D46442000F058FB7805000E00F087FB7005000E00F083FB55
:200C0000452000F04DFBE0B200F07DFB200A00F07AFBE8B200F077FB280A00F074FBF8BD6C
:200C200070B5202000F03CFB00241C4D285D00F06AFB641C2C2CF9D3212000F031FB00249C
:200C4000164D2C35285D00F05EFB641C2A2CF9D3222000F025FB0024104D5635285D00F08D
:200C600052FB641C2A2CF9D3232000F019FB00240A4D8035285D00F046FB641C2A2CF9D3B6
:200C8000242000F00DFB0024044DAA35285D00F03AFB641C2A2CF9D370BD00005E430000AA
:200CA00010B510480078012807D0022815D0032802D10F2000F027FB10BD062000F0F0FA84
:200CC000172000F020FB172000F01DFB172000F01AFB042000F0E4FA10BD002000F0E0FAAE
:200CE00010BD00000112002010B52A480078012806D0022823D0032801D100F04DF810BD2A
:200D0000012000F0CDFA032000F0FDFA002000F0FAFA2B2000F0F7FA2B2000F0F4FA062072
:200D200000F0BEFA172000F0EEFA172000F0EBFA172000F0E8FA042000F0B2FA10BD00203A
:200D400000F0AEFABF2000F0DEFA0D2000F0DBFA302000F0A5FA3C2000F0D5FA612000F0F7
:200D60009FFA012000F0CFFA902000F0CCFA012000F0C9FA2C2000F0C6FA822000F090FAAE
:200D8000282000F0C0FA502000F08AFA972000F0BAFA10BD0112002070B5202000F080FA53
:200DA00000241E4D285D00F0AEFA641CA4B22C2CF8D3212000F074FA0024184D2C35285D80
:200DC00000F0A1FA641CA4B22A2CF8D3222000F067FA0024114D5635285D00F094FA641C6E
:200DE000A4B22A2CF8D3232000F05AFA00240B4D8035285D00F087FA641CA4B22A2CF8D3D7
:200E0000242000F04DFA0024044DAA35285D00F07AFA641CA4B22A2CF8D370BD6C42000048
:200E200010B52248007801282CD0022829D1002000F036FA0F2000F066FA612000F030FA68
:200E4000032000F060FA202000F05DFA012000F05AFAE02000F057FA152000F021FA002098
:200E600000F051FA502000F01BFA112000F04BFA072000F048FA602000F012FA222000F055
:200E800042FA10BD012000F00BFA072000F03BFA072000F038FA3F2000F035FA3F2000F0D1
:200EA00032FA042000F0FCF910BD00000112002010B52C48007801284AD0022847D10020A7
:200EC00000F0EEF9CF2000F01EFA082000F01BFA302000F0E5F93A2000F015FA822000F00E
:200EE000DFF9282000F00FFA062000F0D9F9C72000F009FACC2000F006FA152000F003FA19
:200F0000502000F0CDF9772000F0FDF9602000F0C7F9222000F0F7F9652000F0C1F900208D
:200F200000F0F1F9612000F0BBF9022000F0EBF9802000F0E8F9012000F0E5F9802000F0CC
:200F4000E2F9E52000F0ACF9032000F0DCF910BD012000F0A5F9372000F0D5F9002000F093
:200F6000D2F910BD0112002008B53C480078012846D0022843D1002000F092F93F2000F086
:200F8000C2F9612000F08CF9032000F0BCF9202000F0B9F9012000F0B6F9E02000F0B3F99A
:200FA000152000F07DF9002000F0ADF9502000F077F9102000F0A7F9002000F0A4F9602023
:200FC00000F06EF9222000F09EF9652000F068F9002000F098F9002000F095F9002000F0CC
:200FE00092F9002000F08FF91D4800900346024601462A3B543A7E39A83800F011F908BDB8
:20100000012000F04DF9172000F07DF9172000F07AF93F2000F077F93F2000F074F9112096
:2010200000F071F9822000F03BF9242000F06BF9062000F035F9272000F065F9272000F0E8
:2010400062F92F2000F05FF9172000F05CF9302000F026F9062000F056F908BD0112002066
:201060007945000010B53D480078012822D0022830D003281DD13C2000F012F9052000F026
:2010800042F9182000F00CF9802000F03CF9222000F006F9B12000F036F9202000F000F9D9
:2010A0004F2000F0FDF8002000F02DF9002000F02AF910BD122000F0F3F8462000F0F0F85B
:2010C000F72000F020F9472000F0EAF8F72000F01AF910BD0C2000F0E3F8AE2000F013F90F
:2010E000C72000F010F9C32000F00DF9C02000F00AF9402000F007F9012000F0D1F8AF206B
:2011000000F001F9022000F0FEF8012000F0FBF8112000F0C5F8012000F0F5F8442000F0A9
:20112000BFF8002000F0EFF8002000F0ECF86F2000F0E9F8032000F0E6F8452000F0B0F8BF
:20114000FF2000F0E0F8022000F0DDF8002000F0DAF8002000F0D7F810BD00000112002000
:2011600010B52E480078012835D0022832D1302000F096F83C2000F0C6F8412000F090F8B0
:20118000002000F0C0F8502000F08AF8772000F0BAF8602000F084F8222000F0B4F8612021
:2011A00000F07EF8022000F0AEF8802000F0ABF8012000F0A8F8802000F0A5F8822000F06E
:2011C0006FF81E2000F09FF8E52000F069F8032000F099F810BD012000F062F8372000F06A
:2011E00092F8002000F08FF8002000F059F8CF2000F089F8082000F086F8062000F050F819
:20120000C72000F080F8CC2000F07DF8282000F07AF8042000F044F810BD00000112002034
:20122000FFB581B007460E461546202000F038F80024385D00F067F8641CE4B22A2CF8D32E
:20124000212000F02DF80024305D00F05CF8641CE4B22A2CF8D3222000F022F80024285D17
:2012600000F051F8641CE4B22A2CF8D3232000F017F800240498005D00F045F8641CE4B25C
:201280002A2CF7D3242000F00BF800240A98005D00F039F8641CE4B22A2CF7D305B0F0BD1B
:2012A000F8B50546FF20013000F06EF801267602304600F069F87700384600F065F8304672
:2012C00000F08EF8304600F05FF80024280603D5384600F085F802E0384600F055F83046B3
:2012E00000F07EF8304600F04FF86806050E641CE4B2082CEAD3384600F046F8FF20013057
:2013000000F06EF8F8BDF8B50546FF20013000F03BF801267602304600F036F8770038462F
:2013200000F05EF8304600F05BF8304600F02CF80024280603D5384600F052F802E03846E2
:2013400000F022F8304600F04BF8304600F01CF86806050E641CE4B2082CEAD3384600F06A
:2013600013F8FF20013000F03BF8F8BD002803D00021034A116002E00249014A11607047C0
:2013800000060040287BA593024909898143014A11817047000500400146044880890840CE
:2013A000002801D0012070470020FCE700050040044909888143034A1180114689880143E8
:2013C0009180704700050040044909880143034A11801146898881439180704700050040C7
:2013E000024909890143014A118170470005004003480079082188430149087170470000C1
:2014000020030040034800790821084301490871704700002003004010B50121042000F059
:20142000B3FC0221032000F0AFFC0221052000F0ABFC042000F094FC032000F091FC10BD2C
:2014400070477047002901D080221043014A1077704700000003004010B504460A48007A88
:20146000C007C00F00280CD008480068027807480168491C2046FEF78DFE04480068007871
:2014800010BD0020FCE70000200300408812002070B505460C461248007AC007C00F00280B
:2014A0001CD0A01C0F490968087002200D4909684870224629460B480068801CFEF76AFE17
:2014C0000748007A4008400005490872084600794021084302490871012070BD0020FCE76B
:2014E0002003004088120020F8B5FB48FFF7B4FF00286ED0F94C012720780006000F00288E
:2015000001D1F748C7700120FFF730FFF248F24E0078FF258036FF2865D1EF484178FE29FD
:2015200061D18078FC280AD0FD2818D0FA2826D0002832D001283BD0F9284BD04EE0E64868
:2015400001F026FA002849D00020FFF70FFF2068F021084320600120FFF708FF3EE0DE484F
:2015600001F016FA002839D00020FFF7FFFE2068F021884320600120FFF7F8FE2EE020788F
:20158000000903D03570EE20707002E03570002070700120FFF7EAFE20E0CF4801F0F8F95D
:2015A000002801D0CE48C7700120FFF7DFFE15E0C94801F0EDF9002810D0C948C7700020A4
:2015C000FFF7D4FEC44801F08FFA0120FFF7CEFE04E015E01220307000207070BE48022106
:2015E0008030FFF755FFBE4CE078012808D1BA490878CD2805D0B84802218030FFF748FF30
:20160000F8BD002030707070A070B3484078002829D0B14901286FD002286ED003286DD05F
:2016200004286CD005286BD006286AD0072869D0082868D0092867D00A286FD00B286ED058
:201640000C286DD00D286CD00E286BD010286AD0112869D0162805D01728FCD0182870D0B5
:2016600019286FD05BE101204002FFF78DFE01208002FFF7B5FEFF200130FFF7B1FE402029
:20168000FFF782FE94488078122824D0072822D0002823D0012824D0022824D0032825D03B
:2016A000042826D0052830D0062831D0082832D009283AD00A283BD00B283CD00C283DD082
:2016C0000D2840D00E2841D00F2842D0112843D0102844D023E11220207020E10020207026
:2016E0001DE127701BE10220207018E10320207015E10420207012E134E037E038E03BE000
:201700003EE040E042E075E086E00520207006E10620207003E10820207000E18EE0A4E0ED
:20172000AAE0ADE0B0E0B6E0BAE009202070F6E00A202070F3E00B202070F0E00C2020706F
:20174000EDE0B2E0D0E00D202070E8E00E202070E5E00F202070E2E011202070DFE0102041
:201760002070DCE04020FFF73BFED8E06770D6E0042001F057FED2E0022001F053FECEE01B
:2017800002206070CBE003206070C8E02078112820D0022822D0042820D012281ED00A28BE
:2017A00020D00E281ED0002820D001281ED005281CD006281AD0082818D0092816D00B2853
:2017C00014D00C2812D00D2810D00F280ED010280CD0A4E02420FFF763FDA0E0242001F0FE
:2017E00021FE9CE0132001F01DFE98E0102001F019FE94E02078022805D0012803D0002830
:2018000001D00428FFD0042060708A782271C91C3448FEF7BFFC82E0207802280BD0072834
:2018200009D0042807D0112805D0122803D0122001F0F8FD73E00520607070E0207807283A
:201840000CD004280AD0112808D0122806D00220FFF7A2FD002862D0357060E00220FFF777
:201860009BFD00285BD1357059E00220FFF794FD002854D0357052E08020FFF785FD4EE08C
:201880008020FFF7ADFD4AE02020FFF785FD002845D0357043E08978002001F089FD3EE06B
:2018A0008978012001F084FD39E0207800280FD001280DD005280BD0062809D0082807D0C0
:2018C000092805D00B2803D00F2801D0102826D11320FFF7E5FC22E000000020EC06006047
:2018E00000120020A4120020207800280FD001280DD005280BD0062809D0082807D00928F4
:2019000005D00B2803D00F2801D0102807D1052060708A782271C91C0348FEF73BFC0221CB
:201920000248FFF7B5FDF8BDA412002080000020F8B5FFF767FDFFF765FDFB4D68780028DB
:201940007ED0012809D0022863D0032879D0F74F042877D0052876D0FFE12878022822D09E
:20196000002823D0012824D0042825D0052826D0062827D0072828D0082829D009282AD04B
:201980000A282BD00B282CD00C282DD00D282ED00E282FD00F2830D0112831D0102832D0A7
:2019A000122833D0D9E1FEF747FDD6E1FEF75AFCD3E1FEF70BFDD0E1FEF75EFECDE1FEF79F
:2019C00091FDCAE1FEF7C0FDC7E1FFF749F8C4E1FEF75CFFC1E1FEF791FFBEE1FFF784F90F
:2019E000BBE1FFF75DF9B8E1FFF7BAFBB5E1FFF75FFAB2E1FFF7B8FAAFE1FFF711FAACE17D
:201A0000FFF730FBA9E1FEF7B9FEA6E1FEF7C8FFA3E12878002823D0012824D0052825D0AE
:201A2000062826D0072827D0082828D0092829D00A282AD00B282BD00C282CD00D2803E068
:201A40008DE13DE06FE02EE128D00E2829D00F282AD011282BD010282CD012282DD07CE149
:201A6000FEF700FC79E1FEF7B1FC76E1FEF73AFD73E1FEF769FD70E1FEF7F2FF6DE1FEF7CD
:201A800005FF6AE1FEF73AFF67E1FFF72DF964E1FFF706F961E1FFF763FB5EE1FFF708FA5E
:201AA0005BE1FFF761FA58E1FFF7BAF955E1FFF7D9FA52E1FEF762FE4FE1FEF771FF4CE16E
:201AC0002878002801D1FEF7CDFB287806280CD009280DD00A280ED00B280FD0112810D0BC
:201AE00010281AD012281BD037E1FEF72DFD34E1FEF704FF31E1FFF7F7F82EE1FFF7D0F897
:201B00002BE1FFF7AFFA4F20FFF7CAFB0020FFF7FAFB0020FFF7F7FB1FE1FEF72FFE1CE1BE
:201B2000FEF73EFF19E12878022822D0012820D004281ED005281CD008281AD00A2818D03D
:201B40000B2816D00C2814D00D2812D0112810D012280ED00E2818D0072824D0092838D092
:201B6000062842D000284BD00F287DD010287CD0F3E0002405E0395D012001F019FC641CC1
:201B8000E4B228798442F6D3E7E0002407E0385DC043C1B2012001F00BFC641CE4B22879D2
:201BA0008442F4D3D9E029890020FEF7BFFF242001F038FC002405E0395D012001F0F8FB4D
:201BC000641CE4B228798442F6D32889401C2881C3E000242526F6010021012001F0E8FBEA
:201BE000641CA4B2B442F7D3B7E00024504E0021012001F0DDFB641CA4B2B442F7D3ACE0C9
:201C0000002403262DE0385D68710020A871A97989060A0EAA7169790B0601D53243AA7186
:201C200049006971401CC0B20428F0D3A979012001F0BEFB0020A871A9798906090EA971BC
:201C40006A79130601D53143A97151006971401CC0B20428F0D3A979012001F0A9FB641CE4
:201C6000E4B22879844201E002E010E0CBD374E0002408E0385DC043C1B23955012001F00B
:201C800097FB641CE4B228798442F3D365E0002405E0FF21012001F08BFB641CE4B22879B2
:201CA0008442F6D359E0287800281AD0012818D0052816D0062814D0082812D0092810D051
:201CC0000B280ED00F280CD010280AD0072814D004281FD002282DD0112835D0122833D0FE
:201CE0003BE0002405E0395D012001F061FB641CE4B228798442F6D32FE02220FFF7D0FA65
:201D0000C420FFF700FB2020FFF7CAFAFF20FFF7C7FA22E02220FFF7C3FAC720FFF7F3FA5D
:201D20002020FFF7BDFA18E000120020A4120020C40A00002220FFF7B3FAF720FFF7E3FA19
:201D40002020FFF7ADFA08E02220FFF7A9FAF720FFF7D9FA2020FFF7A3FA00206870F8BD83
:201D6000C206D20E01219140014A11607047000080E200E0C206D20E01219140014A1160BC
:201D80007047000000E100E010B5002819DA1A4A03071B0F083B9B089B00D2588307DC0E34
:201DA000FF23A3409A438B071B0E8407E40EA3401A43114B0407240F083CA408A4001A5130
:201DC00018E00E4A03231B02D21883089B00D2588307DC0EFF23A3409A438B071B0E84079A
:201DE000E40EA3401A43054B032424021B198408A4001A5110BD00001CED00E000E100E0CE
:201E000010B5002819DA1A4A03071B0F083B9B089B00D2588307DC0EFF23A3409A438B07B7
:201E20001B0E8407E40EA3401A43114B0407240F083CA408A4001A5118E00E4A03231B0290
:201E4000D21883089B00D2588307DC0EFF23A3409A438B071B0E8407E40EA3401A43054B2A
:201E6000032424021B198408A4001A5110BD00001CED00E000E100E006480079802188439C
:201E800004490871062001218140034A116000BF704700000004004080E200E07047000002
:201EA0000249014808607047405489008012002030B47446641E2578641CAB4200D21D4641
:201EC000635D5B00E31830BC184702E008C8121F08C1002AFAD170477047002001E001C1CF
:201EE000121F002AFBD1704710B512480088000A00021049088008468088000A0002888006
:201F000008460089000A000208812020FFF750FA4020FFF74DFA8020FFF74AFA8020FFF7C8
:201F200047FA00F009F8FFF763FAFFF775FAFEF767F910BD00050040002008E00749096887
:201F4000095C8200064BD2181160411CC8B21028F4DB002002492031087270479812002059
:201F6000000300400248007908210840C0087047200300407047032001F085FBFBE70000DB
:201F800008B5164800798021084314490871002013490870FFF72CFA00F032F8002813D1B5
:201FA000009069460F48006801F08EFB0098002803D0012000070C4948600C480078012103
:201FC00008430A49087000BF0448007920218843024908710420FFF7C3FE08BD2003004094
:201FE000A01200200C12002000ED00E09412002010B57D20C00000F087FC10BD00000000DC
:2020000010B5FE48007A40084000FC490872FC4800684078932869D008DC26280DD0302835
:202020007ED050287DD052287CD131E095287AD0A22879D0C228F7D185E2F24800780D21A2
:202040004843F14940184078EE49087008460078012816DD0420EA49096808700020E84989
:20206000096848704420E649096888700021E4480068C170E148007940210843DF49087166
:2020800005E0DE48007980218843DC490871EEE2DC4800780D214843DB4940188078D949F7
:2020A000087008460078012819DD0420D449096808700020D249096848704420D049096847
:2020C00088700021CE480068C1700020CF490870CA48007940210843C849087105E0C748D3
:2020E000007980218843C5490871C0E2C44800688078202850D1C34800780D214843C249B6
:202100004018C078BF4908700846007801283CDD0720BB49096808700020B949096804E01C
:202120005DE149E142E292E0B1E148708820B44909688870B64800680178B1480068C170D8
:20214000B34800684178AE4800680171B04800688178AB4800684171A94800688078A849EB
:202160000968C9784840A649096809794840A449096849794840A249096888719F4800795E
:20218000402108439D49087160E09C480079802188439A49087159E09948006880787028BD
:2021A0004ED1974800680079994909680978884236D19348006840799549096849788842C5
:2021C0002ED18F4800688079914909688978884226D18C4800780D2148438B494018007911
:2021E0008849087008460078012812DD0320844909680870022082490968487004208049DC
:20220000096888707D480079402108437B4908711CE07A480079802188437849087115E05C
:20222000784800780D21484377494018007B7549087072480079802188437049087105E02E
:202240006E480079802188436C4908710FE26C480068807820284CD16A4800780D21484368
:202260006949401840796749087008460078012838DD07206249096808700020604909687A
:20228000487063480068C0785D49096888706048006801795A480068C1705D4800684179A0
:2022A0005748006801715A480068817954480068417153480068807851490968C97848401C
:2022C0004F490968097948404D490968497948404B49096888714948007940210843474956
:2022E000087168E045480079802188434349087161E0434800688078702856D140480068CB
:20230000C07843490968C97888423ED13C48006800793F4909680979884236D138480068D5
:2023200040793B490968497988422ED1344800688079374909688979884226D131480078E2
:202340000D2148433049401880792E49087008460078012812DD032029490968087002208D
:2023600027490968487000202549096888702348007940210843214908711CE01F4800797E
:20238000802188431D49087115E01E4800780D2148431D494018007B1A490870174800797A
:2023A000802188431549087105E01448007980218843124908715AE1124800780D2148431A
:2023C00011494018407A0F4908700A20114908700A480079802188430849087100BF0948B4
:2023E00000780D21484308494018807A0549087008460078012841DD01480DE0200300409D
:202400008812002084120020483F0000851200208C120020A0120020006881781220954A0C
:20242000126810700220934A1268507000201AE0914A127A9207920F012A0DD98F4A12783A
:2024400092028B00D21812188D4B1B689B5C894A1268921C135404E00023864A1268921C96
:202460001354421CD0B21028E2DB83482030007940221043804A2032107107E07E4820303D
:202480000079802188437C4920310871EFE07D4800780D2148437C494018C07A7949087072
:2024A00008460078012845DD7248006884780020FEF75CFF7048007A8007800F022819D919
:2024C0006C480068C0786B490968097909020843684909684979090408436649096889794D
:2024E0000906084365490978090209198900674A126850500120FEF739FF5F482030007A13
:20250000022108435C4920310872032059490968087001205749096848700A20554909680C
:2025200088705548203000794021084352492031087107E0504820300079802188434E49E1
:202540002031087193E04B4800688078FF2824D14C480078052817DD032046490968087067
:2025600001204449096848700A20424909688870414820300079402108433F492031087116
:2025800001204349087010E03B48203000798021884339492031087107E0374820300079F3
:2025A0008021884334492031087160E038480078002845D02F4800688078002840D12D486E
:2025C0000068C07800283BD12A4800680079002836D12F4908702B480078052827DD25482C
:2025E0000068407802280DDA22480068407823490870214820300079802188431E492031E6
:20260000087133E003201B490968087001201949096848700020174909688870164820307B
:202620000079402108431449203108711EE0124820300079802188430F492031087115E0AA
:2026400010480078052809DD0B482030007A01210843094920310872002010BD0648203065
:2026600000798021884304492031087100BF00BF0120F2E788120020000300408512002032
:202680008C12002084120020483F000090120020861200201CB5FFF727FC174808210171E1
:2026A00001751549032020310875FDF7BEFDFDF7A8FD12482821009101900023602210A1F2
:2026C000114801F073FA0D483221001F00910190002360220DA10F4801F068FA00200A2112
:2026E00003460091019040220BA10D4801F05EFA01F050F8FEE70000000300401012002020
:202700004D61696E00000000771F00004E46435254580000D1270000534C45455000000058
:20272000E528000008B50020224908702248007A40210840002817D11F48007A40084000C6
:202740001D49087208460079402188431A490871084600798021884317490871002017493E
:202760000870FEF745FE05E01348007C8021084311490874002012490870009069461148A0
:20278000006800F0A1FF0098002803D0012000070D4948600D480078042108430B4908707F
:2027A0000548007940084000034908710520FFF7D7FA08BD8412002020030040A01200206A
:2027C000851200200C12002000ED00E0941200200420FFF7CFFA0320FFF7CCFA0520FFF794
:2027E000C9FA37E00021C943002000F05DFE1A480078C007C00F002808D0174800784008D8
:20280000400015490870FEF76FFE23E01248007802210840002807D00F48007888430E4910
:202820000870FFF785F815E00B4800780421084000280FD0084800788843074908700748CF
:20284000007A40210840002802D1FEF7F9FD01E0FEF7F7FDC6E700009412002020030040CF
:2028600008B51A4800794021884318490871084600798021884315490871154800780628AD
:2028800003DA13480078012802D10A20114908700020009069461048006800F015FF0098D5
:2028A000002803D0012000070C4948600C480078022108430A490870044800791021884332
:2028C000024908710320FFF74BFA08BD2003004084120020A01200200C12002000ED00E01B
:2028E0009412002006E072B6BFF34F8F30BFBFF36F8F62B6F7E710B5FFF7BEFA00F0C8FFB5
:2029000000F09EFD10BD000070B50446002C01D1401E70BD21461A480068FDF725FC451EBE
:202920001848854202D90020C043F2E700210620FFF766FA144800790C21884303210843C0
:202940001149087108460079022108430E49087108460079802188430B4908710020886097
:202960000846C56000790121084307490871062001218140054A116000BF0020C9E70000DD
:2029800080120020FFFFFF000004004000E100E0F0B50021524FC6783A68FF2513071B0FD4
:2029A000504C9E4274D1067917043F0EBE4270D1467917023F0EBE426BD18679120E9642D6
:2029C00067D1474A072B526816D8DB1E0DE0CE001746F740FEB24718FF79BE4204D025701C
:2029E000012060700020F0BD491C8B42EFD82570002060700120F0BD394E0B2BB668B446F8
:202A000027D8CF001646FE404718FF79F6B2BE4204D02570012060700020F0BD491C042916
:202A2000EFDB0021DB1F0DE06246CE00F2404618F67AD2B2B24204D025700120607000205C
:202A4000F0BD491C8B42EFD82570002060700120F0BDCF001646FE404718FF79F6B2BE4295
:202A600004D02570012060700020F0BD491C0429EFDB00211A4F6246CE00F2404618F67AD3
:202A8000D2B2B24206D02570012060700020F0BD21E01BE0491C0429EDDB00210B3BFA6876
:202AA0000DE0CE001746F740FEB24718FF7BBE4204D02570012060700020E8E7491C8B42C3
:202AC000EFD82570002060700120E0E72570012060700020DBE72570012060700020D6E7F7
:202AE000EC06006080000020F0B50021C378021D9A5C424CF02625683540461D9E5D154372
:202B000036023543861D9E5D36043543C61D9B5D1B061D4325600023042A05D23848FF210C
:202B2000017002214170F0BD072A0FD8D21E09E0C5782E180D460835755DCE00B5402B439C
:202B4000491CC9B29142F3DB6360F0BD0B2A20D8D61E09E0C5780F462D180837ED5DCF004B
:202B6000BD402B43491CC9B2B142F3DB636000230021D21F09E0C5782E180D460C35755D7F
:202B8000CE00B5402B43491CC9B29142F3DBA360F0BD0F2AFCD8D61E09E0C5780F462D1812
:202BA0000837ED5DCF00BD402B43491CC9B2B142F3DB636000230021D61F09E0C5780F463A
:202BC0002D180C37ED5DCF00BD402B43491CC9B2B142F3DBA360002300210B3A09E0C57896
:202BE0002E180D461035755DCE00B5402B43491CC9B29142F3DBE360F0BD0000EC06006031
:202C000080000020F8B504460F46124EF5683068001D00F079FC601C07D1002F05D0316800
:202C20000D48091D00F0BFFCF8BD2C1930684460AC4205D23168B06B091D00F09CFCF8BD5C
:202C40003168706B091D00F096FCB06A8442F6D2B462F8BD14120020B00D002070B5044653
:202C600000F0AEFC194DA868401CA8602868002803D06869002807D00CE02C60A8680128D4
:202C800008D100F05DF905E02868E16AC06A884200D82C60686A401C6862E06A296988425F
:202CA00000D928611421484309494018211D00F07AFC00F091FC6869002806D02868E16A7D
:202CC000C06A884201D200F0AFFC70BD141200200009002038B500F073FC0E4C20680028A0
:202CE00015D10D4800F039FC0B48143000F035FC0948E06014302061074B0020983B1A46C1
:202D0000009048321021052000F0D4FD206000F063FC38BD501200205C0E002070B50C4D44
:202D20000C4E11E000F04CFCF068C468201D00F0EBFBA868401EA8606868401E686000F01D
:202D40004BFC204600F052F868680028EAD170BD141200209C0D002010B50B46026C002AEF
:202D60000BD0C1688918C1604468A14201D30168C160C1681846FDF70DFA10BDF8B504465A
:202D800016460027A56B226C002A11D0002E19D0E068FDF7FFF9E168206C091AE1602268F9
:202DA000914202D26168081AE060022E17D019E02068002816D1606800F0BEFF07460020B8
:202DC00060600FE0A068FDF7E5F9216CA0684018A0606168884205D32068A06002E0002D7B
:202DE00000D06D1E6D1CA5633846F8BD10B504465120005D002805D0012802D1204600F088
:202E0000F5FB10BD206B00F0F1FB204600F0EEFB10BD00000749CA681168002905D0002168
:202E20000160002903D0002070470121F8E7D06800687047501200200121C9020F484207F7
:202E400005D0C01DC008C0000C4A821A891A0C4B186000225A6041180839C908C900103B79
:202E600019604A600A600A1A426001604068986058600120C007D86070470000000100204E
:202E800078120020044CFFF749FF20680128FAD900F0CAFBF7E700000009002010B50346AC
:202EA0000298002906D00260C3630164012100F00EFD10BD0060F7E7FFB581B00A9D0C9C30
:202EC0000E461746B900A522206BFDF775F97F1E206BB9004018C008C0000090002021182A
:202EE000325C20310A75315C002902D0401C1028F5D30026204640300746C670382D00D3D9
:202F00003725E5626564A664201D00F031FB2046183000F02DFB24613820401BA06164621D
:202F2000E6643E74049A0199009800F031FA20600B98002801D00B98046005B0F0BD000025
:202F400070B50024104D14206043401900F005FB641C382CF7D30D4800F0FFFA0B48143028
:202F600000F0FBFA0948283000F0F7FA07483C3000F0F3FA0548503000F0EFFA044803490C
:202F800041631431816370BD00090020600D00201412002030B5134900E011460A6882428D
:202FA000FBD34B685C18844203D1406818184860084643680D681C18AC420DD1094C103CF3
:202FC0002468A24206D052689A1842600A681268026002E0046000E00260814200D00860CC
:202FE00030BD00007812002070B50024416000610C4D91420AD8D11A8269914201D301243F
:203000000EE0011D286900F0B6FA09E09A4203D2994201D3012403E0011DE86800F0ABFA1F
:20302000204670BD5012002010B5044600F0C8FAA06B002804D0002400F0CEFA204610BDA4
:203040000124F9E710B5044600F0BAFAA06BE16B884201D1012400E0002400F0BDFA20468F
:2030600010BD0000F8B505460E460F48C068C068C468201D00F048FAE069012810D1A06999
:203080002B46411932462046FFF7AEFF002807D000200346014600902A46204600F026FFBA
:2030A000616A20468847F8BD5012002030B587B0294D47E00398002803DA049A06990598A6
:2030C0009047039800283DDB059C6069002802D0201D00F019FA02A800F084F802460398A1
:2030E0000300FEF7E5FE0A0606062F202806062F202F0498A169034641182046FFF774FFC1
:2031000000281FD0616A20468847E069012819D1002000900498A1690023421819462046A4
:2031200000F0E4FE0EE00498A061811813462046FFF75AFF06E02820005D002802D120469F
:2031400000F054FA002203A9286800F098FC0028B0D107B030BD000050120020F8B5064687
:203160000D4600F04DFB684600F03CF804460098002802D000F03CFEF8BD002D08D1A64249
:2031800006D800F035FE21463046FFF76BFFF8BD0A48002D04D00169096800290CD00025E4
:2031A000311B2A46006800F04BFA00F021FE0028EDD100F039FAF8BD0125F1E75012002069
:2031C0000748416B0968002905D0416BC968C9684968816270470021C94381627047000065
:2031E0001412002070B5054600F03EFD0446074EB068844204D200F00BF80120286001E01E
:2032000000202860B460204670BD000050120020F8B5154E1EE0C0680568C468201D00F0E1
:2032200073F9616A20468847E069012812D1A0694019A84206D960602461211DF06800F0D7
:203240009AF907E000200346014600902A46204600F04CFEF06801680029DCD1F06831691B
:20326000F1603061F8BD00005012002072B6FEE708B56846FFF7CEFD0099FFF76FFFFFF709
:2032800015FFF6E7F8B5044600F09AF92646403605257557274624370BE0606A00280AD06C
:2032A000384600F073FD002801D000F007FA6D1E6DB2002DF1DC0027FF43777100F08CF9DC
:2032C00000F07EF9042575572046103000900BE0206900280AD0009800F058FD002801D010
:2032E00000F0ECF96D1E6DB2002DF1DC377100F073F9F8BDF8B50546002600F081FA234FA1
:203300003868002801D1FFF797FDF868054238D1002D07D00835680704D06807400F08216E
:20332000081A4519002D2CD07868854229D8174910310846046801E0214604466068A8429D
:2033400002D220680028F7D13868844219D00E680836206808606068411B102904D960197B
:2033600041606560FFF716FE61687868401A7860BA68904200D2B860F8680143616000209F
:20338000206000F035FD3046F8BD000068120020001F01231B060360001F0160001F034914
:2033A0000160143802602038704700006D320000F8B504460D46FF200130FDF7E5FF0126B7
:2033C00076023046FDF7E0FF7700002C03D03846FEF706F802E03846FDF7D6FF3046FDF7B2
:2033E000FFFF3046FDF7D0FF0024280603D53846FDF7F6FF02E03846FDF7C6FF3046FDF782
:20340000EFFF3046FDF7C0FF6806050E641CE4B2082CEAD33846FDF7B7FFFF200130FDF7A1
:20342000DFFFF8BD10B5C10504D5C1B20120FFF7BFFF10BDC1B20020FFF7BAFF10BD000071
:2034400010B518480078002821D005281AD009280BD00A281ED10920124908700021202015
:20346000FDF7F0FFFDF7CEFF1AE0FEF77BFD002805D00C480078401E0A49087001E0FDF77A
:20348000C1FF0DE000210846FDF7DCFF08E0FDF7AFFF05E003480078401E0249087000BF2F
:2034A00000BF10BDA012002070B506460C4600F087F8144D2868C06C00280AD128680121AA
:2034C00040300174002C04D02046FFF79BFB00F0ABF800F081F800F073F82868C46C0021DD
:2034E000002C07D0002E02D02868C16402E02A68601ED06428684030017400F06DF82046BE
:2035000070BD0000141200200169436882689A60836842685A604A68824201D182684A6014
:20352000002202610868401E0860086870470000034B036018465430086060201060704707
:20354000840E0020034B0360184654300860502010607047581000207047014608314160C7
:203560000022D2438260C160016100210160704700210161704730B50C68621C02D002464B
:20358000083202E0026904E01A4653681D68A542FAD953684B6099608A605160086101689A
:2035A000491C016030BD42684A6093688B6093685960916008610168491C0160704700002A
:2035C00072B604480168491C0160BFF34F8FBFF36F8F70476412002003490868401E086039
:2035E000002800D162B670476412002070B5002816D0083804460B4D6068E96808420FD016
:203600002268002A0CD18843606000F0F9F860686968401868602046FFF7BCFC00F0E8FB0D
:2036200070BD0000681200200120044900074860BFF34F8FBFF36F8F7047000000ED00E0E2
:2036400070B50D4616460446FFF7BAFF20464030042141560022491C002900D102710521F1
:203660004156491C00D14271FFF7B6FFA06B002805D1204632462946243000F075F82046B2
:20368000FFF700FE70BD10B502460020002A07D000F0B6F800211046FFF7B4FA00F0A8FB8F
:2036A000002801D1FFF7C0FF10BD000002490A6A0260C96841607047141200200149012033
:2036C000C861704714120020F8B504460E4625464035287CFCF712FDFCF710FD0746287C02
:2036E00002212974E16C491CE164012823D1144D286B00280ED0214618311248FFF753FFAA
:20370000E06A2968C96A884215D90120002E11D0306010E0201DFFF7F7FEE06A2969884265
:2037200000D928611421484307494018211DFFF73AFFE5E7E8613846FCF7E4FCF8BD000037
:2037400014120020880D00200009002010B50C46044909681831FFF70EFF01212046FFF7A6
:2037600051FA10BD1412002070B503460D4614460748016818461831FFF715FF002C01D06A
:203780000025ED4321462846FFF73CFA70BD00001412002030B587B000250695059504AA3C
:2037A00005A906A8FFF7C4FE0698059901910290002300950EA11048049A00F027FA0F4CCC
:2037C000E062002801D0012000E00020012801D100F060FB012808D172B60020C043A062F8
:2037E00001206061E56000F03BF807B030BD000049444C4500000000852E000014120020C4
:203800000248016B491C0163704700001412002010B5114B186B002802D00120D86110BD67
:203820000020D86118690D4900E0401E142242438A58002AF9D01422424351184A685268FA
:203840004A600C460834A24201D152684A604968C9681960186110BD141200200009002006
:2038600010B50948016AFF22120411430162016A120211430162FEF7BBFB04490020086023
:20388000FCF728FC002010BD00ED00E06412002010B5FCF733FC044600F0ECF9002803D0C0
:2038A00001200349000748602046FCF72BFC10BD00ED00E0F8B51C46069B002C05D00126FA
:2038C00046252E550094FFF7E9FA2046F8BD70B504460E46FFF774FE216CE06B484321685B
:2038E000401860600020A0632068A060E06B216C401E484321684018E0600020C043254695
:2039000040352871687120461030002E09D0FFF724FE20462430FFF720FEFFF75DFE0120BB
:2039200070BD21690029F8D000F030FA0028F4D0FFF77AFEF1E7FFB583B004461F460025D8
:203940000026FFF73DFEA06BE16B884207D3022F05D0059800281CD0002D1ED021E03A46C2
:2039600020460499FFF70AFA616A002908D02046243000F00BFA002806D0FFF755FE03E0A5
:20398000002801D0FFF750FEFFF726FE012007B0F0BDFFF721FE0020F9E701A8FFF786FE13
:2039A0000125FFF719FEFFF72BFFFFF709FE2046403004214156491C00D1067105214156BB
:2039C000491C00D14671FFF707FE05A901A800F0C5F8002806D02046FFF754FC00F008FA5F
:2039E0000020D4E72046FFF72DFB00280ED0204610300599FFF7AAFE2046FFF743FC00F0F5
:203A0000F7F900289DD1FFF70FFE9AE72046FFF739FC00F0EDF994E7FFB581B0044616462F
:203A2000FCF76CFB0090A06BE16B884209D30498022806D000240098FCF764FB204605B0DA
:203A4000F0BD204640300525455707462046049A0299FFF793F9681C03D06D1C7D710124BC
:203A6000E9E7606A0028FAD02046243000F08EF90028F4D0002EF2D001203060EFE7F7B57A
:203A800082B0044600250026FFF79AFDA76B002F15D020460399FFF75FF97F1EA76320692C
:203AA000002807D02046103000F070F9002801D0FFF7BAFDFFF790FD012005B0F0BD0498C0
:203AC000002802D0002D04D007E0FFF785FD0020F3E76846FFF7EAFD0125FFF77DFDFFF77B
:203AE0008FFEFFF76DFD2046403004214156491C00D1067105214156491C00D14671FFF7FA
:203B00006BFD04A9684600F029F800280BD02046FFF7B8FB00F06CF92046FFF785FA002867
:203B2000B2D00020C9E72046FFF77EFA00280ED0204624300499FFF709FE2046FFF7A2FB0C
:203B400000F056F900289FD1FFF76EFD9CE72046FFF798FB00F04CF996E70000F8B5054611
:203B60000C46FFF72DFD104EF2686B68D01A21684F1C07D02F68366AB74205D0934203D8DE
:203B800001240DE000240BE0814206D9081A20602846FFF78BFD002402E000202060012409
:203BA000FFF71AFD2046F8BD14120020FFB585B00E9F1646B000FFF79DFB054628000BD019
:203BC0005420FFF797FB0446002C01D0256304E02846FFF70BFD00E00024002C13D0002097
:203BE000512108550F9903900097019102943246089B06990598FFF75FF92046FFF72EF8D5
:203C0000012009B0F0BD0020C043FAE7F0B585B00A9F0B9D0C9C84460026002C10D0002D1D
:203C20000ED0256302255120055504A8009701AD51C56046FFF740F92046FFF70FF800E00D
:203C40000496049805B0F0BD06484169002904D0006B002803D000207047012070470220A0
:203C600070470000141200200148C0687047000014120020F8B500262D4F386B00280AD0E5
:203C8000B869401CB861FFF767FCF869002800D001263046F8BDFD686D1CFD60002D08D139
:203CA000786BB96B7963B863386A401C3862FFF787FAB86A85420ED3786B0068002807D0E3
:203CC000786BC068C4686068854213D2B86202E00020C043B86238681421C06A4843154918
:203CE0000858012800D90126B8690028CDD1FFF733FCCAE7201DFFF707FCA06A002803D043
:203D000020461830FFF700FCE06A3969884200D938611421484307494018211DFFF743FC00
:203D2000E06A3968C96A8842C6D30126C4E70000141200200009002010B504460020002C66
:203D40001ED0A16C491EA164636CE26A9A4217D0002915D1201DFFF7D7FB606CE0623821A3
:203D6000081AA0610749E06A0A69904200D908611421484304494018211DFFF714FC012035
:203D800010BD0000141200200009002070B5C068C468204618300646FFF7B6FB114D286BDC
:203DA00000280CD031461048FFF7FDFBE06A2968C96A884213D901200121E96170BD201D87
:203DC000FFF7A2FBE06A2969884200D928611421484306494018211DFFF7E5FBE6E70020E0
:203DE00070BD000014120020880D002000090020F8B500240027FFF7E3FB234D286B401E45
:203E00002863286B00283AD1A868002837D001261AE0C068C46820461830FFF775FB201D4C
:203E2000FFF772FBE06A2969884200D928611421484316494018211DFFF7B5FBE06A2968E1
:203E4000C96A884200D3EE61114801680029E0D1002C01D0FFF7B4F9AC69002C09D0FFF7F7
:203E600009FF002800D0EE61641E002CF7D10020A861E869002802D00127FFF7D5FBFFF725
:203E8000ABFB3846F8BD00001412002000090020880D002030B587B00024FEF71BFF0F4D7A
:203EA0002868002817D000200690059004AA05A906A8FFF747FB059906982822009201912C
:203EC0000290002306A10848049AFFF79FFE6860002800D00124204607B030BD5012002094
:203EE000546D72205376630071320000F0B585B00A9D06461F460023124C206800281ED04F
:203F0000009101920296062913DAFFF79DFE022807D000231A4669462068FFF70CFD034635
:203F20000DE000232A4669462068FFF704FD034605E000233A466946FFF76EFD034618464B
:203F400005B0F0BD501200200002020000000000000000000000010301010101010101016D
:203F600001010000000204020002000000000000010103050301030101010101000000041B
:203F80000004060400000000000001010501050705010101010100000000000000000001F4
:203FA000060600000101010101010101010707010060000000120020A4000000CA1E0000BF
:203FC000A4600000A412002084040000DA1E00000000000000000000000000000000000087
:203FE0000000000000000000000000000000000000000000000000000000000000000000C1
:204000000E14010A06040A0A0F03030C060A000E14010A46048A4A0F83430C860A040E1442
:20402000018A06048A4A0F83430C064A048E94018A06048A4A0F83430C060A048E94018AB5
:2040400006048A4A0F83430C060A04031D01010823373701000000000000835D0181482304
:20406000777701000000000000031D01010823373701000000000000806040000000001065
:204080006020000000008060400000000010602000000000000000000000000303000002E8
:2040A00009090000020303000002000000000000000000000000000000000000000015418E
:2040C000A832300A00080000000260282800000100140000000100121200000100000000D7
:2040E000000000000000000000000000000000004008000000029028280000014014000041
:204100000001A0121200000100000000000000000000000000000000000040170000000280
:20412000900F0F000003400A01000001A00E0E0000020000000000000000000000000000C4
:204140000000000080080000000290282800000180140000000150121200000100000000EA
:2041600000000000000000000000000000008008000000029028280000018014000000013F
:20418000501212000001000000000000000000000000000000000000000800000002602818
:2041A00028000001001400000001001212000001000000000000000000000000000000009C
:2041C00000000000400800000002902828000001401400000001A01212000001000000009A
:2041E0000000000000000000000000000000401700000002900F0F000003400A0100000169
:20420000A00E0E00000200000000000000000000000000000000000080080000000290289E
:2042200028000001801400000001501212000001000000000000000000000000000000004B
:204240000000800800000002902828000001801400000001501212000001000000000000E9
:20426000000000000000000000000000001700000002001717000002000A01000001000EDB
:204280000E000002000000000000000000000000000000000000000040170000000290170E
:2042A00017000002400A01000001A00E0E00000200000000000000000000000000000000DB
:2042C0000000401700000002901717000002400A01000001A00E0E000002000000000000BB
:2042E000000000000000000000000000801700000002901717000002800A01000001500E7B
:204300000E0000020000000000000000000000000000000000008017000000029017170036
:204320000002800A01000001500E0E00000200000000000000000000000000000000000081
:2043400050AA55AA11000000000000000000000000000000FFFF1F00000000000000000036
:20436000000800000002602828000001001400000001001212000001000000000000000048
:2043800000000000000000000000400800000002902828000001401400000001A0121200D9
:2043A0000001000000000000000000000000000000000000400800000002902828000001D1
:2043C000401400000001A0121200000100000000000000000000000000000000000080083B
:2043E0000000000290282800000180140000000150121200000100000000000000000000D0
:20440000000000000000000080080000000290282800000180140000000150121200000127
:20442000000000000000000000000000000000000000804A40000000000000000000404AE8
:2044400080000000000000000000804A40000000000000000000404A8000000000000000C8
:2044600000000000000000000000000000000F0000000000000F00000F0000020F000000FE
:2044800000000001000000000000000000000000000000000000000000000000000000001B
:2044A0000000000000000000000000000000000000000000000000000000000000000000FC
:2044C0000000222222222222000000221741003236000F0F000001000F010F0102000F0FCF
:2044E000000001000000000000000000000000000000000000000000000000100F0F00008D
:2045000001840F010F0102200F0F00000100000000000000000000000000000000000000B5
:204520000000000000100F0F000001840F010F0102200F0F00000100000000000000000067
:20454000000000000000000000000000000000800F0F000001840F010F0102400F0F0000B8
:2045600001000000000000000000000000000000000000000000000000800F0F0000018417
:204580000F010F0102400F0F0000010000000000000000000000000000000000000000009A
:2045A0000000000000000000000000000000000000000000000000000000000000000000FB
:2045C0000000000000000000000000000000000000000000000000000000000000000000DB
:2045E0000000000000000000000000000000000000000000000000000000000000000000BB
:2046000000000000000000000000000000000000000000000000000000000000000000009A
:2060000000000100000000000000000000000000000000000000000000000000000000007F
:20602000000000000000000000000000000000000000000000000000000000000000000060
:20604000000000000000000000000000000000000000000000000000000000000000000040
:2060600000000000AAAAAAAA00000000000000000000000000000000000000000000000078
:20608000405489000000000000000080000000600000006000000000F0070060F0070060F5
:2060A0000000000000000000000000000000000000000000000000000000000000000000E0
:2060C0000000000000000000000000000000000000000000000000000000000000000000C0
:2060E0000000000000000000000000000000000000000000000000000000000000000000A0
:2061000000000000000000000000000000000000000000000000000000000000000000007F
:00000001FF
